:40000000008000208D0A0000FDA20000FDA20000FDA20000FDA20000FDA20000FDA20000FDA20000FDA20000FDA20000FDA20000FDA20000FDA20000FDA20000FDA20000D7
:40004000FDA20000FDA20000FDA20000FDA20000FDA20000FDA20000FDA20000FDA20000FDA20000FDA20000FDA20000FDA20000FDA20000FDA20000FDA20000FDA2000090
:40008000FDA20000FDA20000FDA20000FDA20000FDA20000FDA20000FDA20000FDA20000FDA20000FDA20000FDA20000FDA20000FDA20000FDA20000FDA20000FDA2000050
:4000C00008000223000008760800032300001076080004230000287608000523000030760500062300002070050007230000307005000823000060700500FE23000070706B
:4001000020000A220000005110000B220000305110000C22000050511000FE220000C05180090E220000000000040F220000000C80011022000000148001112200000016B9
:400140008001122200000018800113220000001A80001422000000418000152200000042800016220000004380001722000000458000182200000049800019220000004CEF
:4001800080001A220000004D1000FE220000105007001C230000305207001D230000785208001E23000078452000FE23000070640800202300000051800021230000000A48
:4001C000800022230000800A800023230000804D800024230000804C80002523000000478000262300008047800027230000004680002823000080468000292300008045B9
:4002000080002A230000004480002B230000804480002C230000801B80002D230000801580002E230000801980002F23000080178000302300008009800031230000000B3E
:40024000800032230000800B8000332300008049800034230000004880003523000080488000362300008043800037230000804280003823000080418000392300000040D0
:4002800080003A23000080401000FE23000000500100000001000000010000000048014001000000004800400100000000200140010000000020004080B51448144B21E057
:4002C0005C689968DD688C420CD0002205E0A6180832D6E9008941E902898C460831AA42F5D101E004EB050C1C696146002204E008320026002741E902670831A242F7D17F
:40030000143301380028DBD109F0BEFF010000002CA9000048F23063C1F6FF731A780AB901201870704700BF48F20010C1F6FF7008B503682BB140F20003C0F2000303B161
:40034000984708BD80B500AF62B604F013F903F03BF903F057F903F07BFD4FF000004FF0000103F08BFD4AF26830C0F2000003F0BFFD4FF001004FF0000103F07FFD4AF2AE
:400380007C30C0F2000003F0B3FD4FF001004FF00B0103F073FD4AF28030C0F2000003F0A7FD03F019FC4FF00A0003F0C9FC4FF0010003F0D5FC4FF000004FF0020100F09B
:4003C000C5FB00F0D5FD0346002BFAD000F08AF84FF0010000F0D8FD0346012B0DD14FF0010048F2D861C1F6FF714FF0080200F01DFE4FF0020000F011FF4FF0020000F0D3
:40040000C3FD0346012B1CD14FF0020000F0D6FD0346DAB248F29D63C1F6FF731A7048F29D63C1F6FF731B784FF0020048F2C861C1F6FF711A4600F0A5FE4FF0020000F0EF
:40044000EDFE00F019F848F23663C1F6FF731A8840F6FE039A4201D900F0D4FA48F23663C1F6FF731B8803F101039AB248F23663C1F6FF731A80A9E780B500AF48F2C863F5
:40048000C1F6FF735B78002B1AD048F2C863C1F6FF735B78642B13D848F2C863C1F6FF735B781A4648F29C63C1F6FF731A7048F29C63C1F6FF731B78DBB2184603F040FC94
:4004C00048F2C863C1F6FF731B78002B04D04FF0010003F045FC03E04FF0000003F040FC80BD00BF80B586B000AF4FF0010003F09DF80346002B00F0808203F0C7F80246D9
:4005000048F26C73C1F6FF731A6048F26C73C1F6FF731B68002B06DA48F26C73C1F6FF734FF000021A6048F26C73C1F6FF731B68B3F5803F06DD48F26C73C1F6FF734FF49E
:4005400080321A6048F23463C1F6FF731B78002B70D148F24063C1F6FF731A6848F26C73C1F6FF73196848F2E863C1F6FF7343F8221048F24063C1F6FF731B6803F1010270
:4005800048F24063C1F6FF731A604FF00003BB604FF000037B600DE07A6848F2E863C1F6FF7353F82230BA681344BB607B6803F101037B607B68092BEEDDBA6846F26763D7
:4005C000C6F2666383FB02134FEAA3014FEAE273C3EB0103BB60BB684FEA2323DAB248F23863C1F6FF731A70BB68DAB248F23963C1F6FF731A7048F24063C1F6FF7319683A
:4006000046F26763C6F2666383FB01234FEAA3024FEAE173C3EB020213464FEA830313444FEA4303C3EB010248F24063C1F6FF731A6066E148F23463C1F6FF731B78012B59
:4006400070D148F24463C1F6FF731A6848F26C73C1F6FF73196848F23873C1F6FF7343F8221048F24463C1F6FF731B6803F1010248F24463C1F6FF731A604FF00003FB60CA
:400680004FF000037B600DE07A6848F23873C1F6FF7353F82230FA681344FB607B6803F101037B607B68092BEEDDFA6846F26763C6F2666383FB02134FEAA3014FEAE27314
:4006C000C3EB0103FB60FB684FEA2323DAB248F23A63C1F6FF731A70FB68DAB248F23B63C1F6FF731A7048F24463C1F6FF73196846F26763C6F2666383FB01234FEAA302ED
:400700004FEAE173C3EB020213464FEA830313444FEA4303C3EB010248F24463C1F6FF731A60EEE048F23463C1F6FF731B78022B70D148F24863C1F6FF731A6848F26C73E5
:40074000C1F6FF73196848F2A063C1F6FF7343F8221048F24863C1F6FF731B6803F1010248F24863C1F6FF731A604FF000033B614FF000037B600DE07A6848F2A063C1F62E
:40078000FF7353F822303A6913443B617B6803F101037B607B68092BEEDD3A6946F26763C6F2666383FB02134FEAA3014FEAE273C3EB01033B613B694FEA2323DAB248F2A1
:4007C0003C63C1F6FF731A703B69DAB248F23D63C1F6FF731A7048F24863C1F6FF73196846F26763C6F2666383FB01234FEAA3024FEAE173C3EB020213464FEA83031344AA
:400800004FEA4303C3EB010248F24863C1F6FF731A6076E048F23463C1F6FF731B78032B6FD148F24C63C1F6FF731A6848F26C73C1F6FF73196848F21073C1F6FF7343F837
:40084000221048F24C63C1F6FF731B6803F1010248F24C63C1F6FF731A604FF000037B614FF000037B600DE07A6848F21073C1F6FF7353F822307A6913447B617B6803F1B4
:4008800001037B607B68092BEEDD7A6946F26763C6F2666383FB02134FEAA3014FEAE273C3EB01037B617B694FEA2323DAB248F23E63C1F6FF731A707B69DAB248F23F63BC
:4008C000C1F6FF731A7048F24C63C1F6FF73196846F26763C6F2666383FB01234FEAA3024FEAE173C3EB020213464FEA830313444FEA4303C3EB010248F24C63C1F6FF73BF
:400900001A6048F23863C1F6FF731B78DAB248F2D863C1F6FF731A7048F23963C1F6FF731B78DAB248F2D863C1F6FF735A7048F23A63C1F6FF731B78DAB248F2D863C1F627
:40094000FF739A7048F23B63C1F6FF731B78DAB248F2D863C1F6FF73DA7048F23C63C1F6FF731B78DAB248F2D863C1F6FF731A7148F23D63C1F6FF731B78DAB248F2D86312
:40098000C1F6FF735A7148F23E63C1F6FF731B78DAB248F2D863C1F6FF739A7148F23F63C1F6FF731B78DAB248F2D863C1F6FF73DA7148F23463C1F6FF731B78184603F08C
:4009C000F7FD48F23463C1F6FF731B78022B0DD848F23463C1F6FF731B7803F10103DAB248F23463C1F6FF731A7006E048F23463C1F6FF734FF000021A7007F11807BD460A
:400A000080BD00BF80B500AF48F26C73C1F6FF731B6848F26070C1F6FF704AF28431C0F200011A4604F058FD4FF001004FF0030103F024FA48F26070C1F6FF7003F058FA8B
:400A400046F22B43C4F200031B78DBB248F27070C1F6FF704AF28C31C0F200011A4604F03BFD4FF001004FF00D0103F007FA48F27070C1F6FF7003F03BFA48F23663C1F60C
:400A8000FF734FF000021A8080BD00BF054B1C7844F001041C70044B1A78D2B2034B1A70FFF70AFCE8460040FA460040BC76004080B582B000AF4EF60C53CEF2000340F2FD
:400AC0000042C0F2FA521A604EF61453CEF200034EF61452CEF20002126842F400721A604FF000037B6014E07A687B684FEA830140F20003C0F200030B441B68194648F2DE
:400B00000003C1F6FF7343F822107B6803F101037B607B682F2BE7D947F2BC63C4F200031B78DAB248F62403C1F6FF731A704EF60853CEF2000348F20002C1F6FF721A60E1
:400B400004F068F807F10807BD4680BD80B582B000AF02460B46FA71BB7148F25063C1F6FF731B78002B08D100F012F848F25063C1F6FF734FF001021A70FA79BB7910460E
:400B8000194600F00DF907F10807BD4680BD00BF80B582B000AF03F01BFC0346FB7144F2A533C4F2000344F2A532C4F200021278D2B242F00102D2B21A7044F2B533C4F254
:400BC000000344F2B532C4F200021278D2B242F00102D2B21A7046F29D03C4F200034FF001021A7046F20903C4F200034FF002021A7046F21003C4F2000346F21002C4F2A1
:400C000000021278D2B202F07F021A704FF0000003F016FC44F29433C4F2000344F29432C4F200021278D2B202F0F9021A7046F21203C4F2000346F21202C4F200021278E0
:400C4000D2B202F0DF021A7044F29433C4F2000344F29432C4F200021278D2B242F00102D2B21A704FF0010003F0EAFB4FF0280003F0E6FB45F2F813C4F2000345F2F81249
:400C8000C4F200021278D2B202F07F021A7045F2F813C4F2000345F2F812C4F200021278D2B202F0BF021A7044F29433C4F2000344F29432C4F200021278D2B242F0020284
:400CC000D2B21A704FF0020003F0BAFB44F29433C4F2000344F29432C4F200021278D2B242F00402D2B21A7046F28403C4F200034FF000021A7046F28503C4F200034FF044
:400D000000021A70FB79184603F066FB4FF0170041F6D131C0F2000103F0A6FB4FF017004FF0070103F0D4FB4FF0150041F6C531C0F2000103F098FB4FF015004FF0070177
:400D400003F0C6FB4FF0180041F29521C0F2000103F08AFB4FF018004FF0070103F0B8FB4FF0000041F6E521C0F2000103F07CFB4FF000004FF0070103F0AAFB4FF0010019
:400D800041F65531C0F2000103F06EFB4FF001004FF0070103F09CFB07F10807BD4680BD80B584B000AF02460B46FA71BB714FF00003FB730BE0FA7B48F61803C1F6FF7335
:400DC0004FF001019954FB7B03F10103FB73FB7B002BF0D04FF0170003F0A8FB4FF0180003F0A4FB4FF0000003F0A0FB4FF0010003F09CFB48F29173C1F6FF734FF0000274
:400E00001A70BB79002B02D0012B08D00FE046F20903C4F200034FF002021A700EE046F20903C4F200034FF003021A7006E046F20903C4F200034FF003021A7048F28C7397
:400E4000C1F6FF73FA791A7048F29073C1F6FF734FF000021A7048F28F73C1F6FF734FF000021A7048F27873C1F6FF734FF000021A7048F28E73C1F6FF734FF000021A70A3
:400E800048F60903C1F6FF734FF000021A7046F22803C4F200034FF003021A7046F20803C4F200036FF07F021A704FF0010003F087FA46F21203C4F200034FF004021A701B
:400EC00007F11007BD4680BD80B483B000AF4FF00003FB710BE0FA7948F61803C1F6FF734FF001019954FB7903F10103FB71FB79002BF0D048F29173C1F6FF734FF00002F2
:400F00001A7048F29073C1F6FF734FF000021A7048F28F73C1F6FF734FF000021A7048F27873C1F6FF734FF000021A7048F28E73C1F6FF734FF000021A7048F60903C1F67D
:400F4000FF734FF000021A7046F22803C4F200034FF003021A7046F20803C4F200036FF07F021A7007F10C07BD4680BC704700BF80B400AF48F29073C1F6FF731B78DBB2BB
:400F80001846BD4680BC704780B483B000AF0346FB71F97948F29C72C1F6FF720B464FEA43030B444FEA830313445B78DBB2184607F10C07BD4680BC704700BF80B485B014
:400FC00000AF0346FB714FF00003FB81FB79002B24D0FB79082B21D8FB7903F1FF33DBB24FEA03137B737A7B46F20C03C4F2000313441B78DBB203F007034FEA03239AB224
:40100000797B46F20D03C4F200030B441B78DBB242EA03039BB2A3F10203FB81FB89184607F11407BD4680BC704700BF80B489B000AFB96013460246FA73FB80FB7B002BAF
:4010400000F09A80FB7B082B00F29680FB7B03F1FF33DBB24FEA0313FB75FA7D46F28803C4F200031344BB61F888F97B48F29C72C1F6FF720B464FEA43030B444FEA830325
:40108000134403F106031B889BB2C3F50073984212D9F97B48F29C72C1F6FF720B464FEA43030B444FEA8303134403F106031B889BB2C3F50073FB80FA7D46F20C03C4F2DC
:4010C00000031344FA884FEA122292B25FFA82FCF87B48F29C71C1F6FF7102464FEA420202444FEA82020A44D278D2B24CEA0202D2B21A70FA7D46F20D03C4F200031344B0
:40110000FA88D2B21A70BB68002B11D04FF00003FB8309E0BB69F98BBA680A4412781A70FB8B03F10103FB83FA8BFB889A42F1D3F97B48F29C72C1F6FF720B464FEA4303C3
:401140000B444FEA830313444FF000025A70FA7D46F20E03C4F200031344F87B48F29C71C1F6FF7102464FEA420202444FEA82020A445279D2B21A7007F12407BD4680BCFD
:40118000704700BF80B588B000AFB96013460246FA73FB80FB7B002B37D0FB7B082B34D8BB68002B31D0FB7B03F1FF33DBB24FEA0313FB75FA7D46F28803C4F2000313441D
:4011C000BB61FB7B1846FFF7F9FE0346FB83FA88FB8B9A4201D9FB8BFB804FF00003BB830AE0BA8BBB681344BA691278D2B21A70BB8B03F10103BB83BA8BFB889A42F0D3C5
:40120000FB7B184600F00AF802E04FF00003FB80FB88184607F12007BD4680BD80B485B000AF0346FB71FB79002B2DD0FB79082B2AD8FB7903F1FF33DBB24FEA0313FB7313
:40124000F97948F29C72C1F6FF720B464FEA43030B444FEA830313444FF000025A70FA7B46F20E03C4F200031344F87948F29C71C1F6FF7102464FEA420202444FEA8202D7
:401280000A445279D2B21A7007F11407BD4680BC704700BF80B582B000AF46F22803C4F200031B78BB71BB7903F01003002B00F08E804FF00103FB71BB795BB2002B17DADF
:4012C000BB7903F00F03012B03D04FF00003FB7123E000F081F848F27973C1F6FF731B78DBB25BB2002B17DA4FF00003FB7114E0BB7903F04003002B02D000F0BFF80CE068
:40130000BB7903F02003002B02D000F0DDF804E04FF00003FB7100E000BFFB79002B56D046F22803C4F200031B78BB71BB795BB2002B4CDB48F28D73C1F6FF731B78DAB2BB
:4013400048F60A03C1F6FF731B78DBB242EA0303BB7146F22903C4F20003BA791A7046F22903C4F200031B78DBB2BA799A422ED148F27973C1F6FF731B78FB7146F22803A5
:40138000C4F200031B78DBB223F07F03BB71BB79002B13D146F22803C4F2000348F27972C1F6FF721278D2B21A7046F22803C4F200031B78DBB203F00F03FB7148F279737C
:4013C000C1F6FF731B78DBB2FA799A42D0D107F10807BD4680BD00BF80B582B000AF46F22803C4F200031B78FB7146F22803C4F20003FA791A7046F22803C4F200031B78B5
:40140000FB71FB795BB2002B06DA48F27973C1F6FF73FA791A702DE04FF0020000F012FB46F20003C4F200031B78DBB203F06003202B08D0402B0BD0002B0ED100F054FEFE
:401440000346FB710CE003F08DFC0346FB7107E001F0B2FF0346FB7102E04FF00003FB71FB79002B06D148F27973C1F6FF734FF003021A7007F10807BD4680BD80B500AF0E
:4014800048F29173C1F6FF731B78DBB2062B19D801A252F823F000BFC5140000C5140000B5140000C5140000BB140000C5140000C114000000F05AF904E000F055FA01E0AC
:4014C00000F08CFA80BD00BF80B500AF48F29173C1F6FF731B78DBB2062B22D801A252F823F000BF2315000023150000011500002315000007150000231500000D150000F1
:4015000000F03AF90DE000F0A5F90AE04FF0030000F098FA48F27973C1F6FF734FF003021A7080BD80B400AF48F60903C1F6FF731B78DBB21A4648F60C03C1F6FF731B8816
:401540009BB213449AB248F60C03C1F6FF731A8048F60A03C1F6FF734FF000021A7034E048F60A03C1F6FF731B78DBB203F1804303F5C04348F28072C1F6FF72526811783B
:40158000C9B2197002F1010248F28073C1F6FF735A6048F60A03C1F6FF731B78DBB203F10103DAB248F60A03C1F6FF731A7048F28073C1F6FF731B889BB203F1FF339AB253
:4015C00048F28073C1F6FF731A8048F28073C1F6FF731B889BB2002B07D048F60A03C1F6FF731B78DBB2072BBAD948F60A03C1F6FF731B78DBB2002B07D148F60903C1F6C2
:40160000FF731B78DBB2082B1ED148F28D73C1F6FF731B78DAB26FF07F0382EA0303DAB248F28D73C1F6FF731A7048F27973C1F6FF734FF00F021A7048F29173C1F6FF7318
:401640004FF002021A700DE048F27973C1F6FF734FF002021A7048F29173C1F6FF734FF002021A7048F60A03C1F6FF731B78DAB248F60903C1F6FF731A70BD4680BC7047DA
:4016800080B582B000AF48F28073C1F6FF731B889BB2002B02D100F03DF833E048F29173C1F6FF734FF002021A7048F28D73C1F6FF734FF000021A7000F0F0F946F207031B
:4016C000C4F200031B78DBB24FEA03239AB246F20603C4F200031B78DBB242EA03039BB2FB8048F28073C1F6FF731B889BB2FA889A4205D248F28073C1F6FF73FA881A8065
:40170000FFF710FF4FF00103184607F10807BD4680BD00BF80B400AF48F29173C1F6FF734FF002021A7048F28D73C1F6FF736FF07F021A7048F27973C1F6FF734FF00F027A
:401740001A7048F60903C1F6FF734FF000021A7048F60A03C1F6FF734FF000021A704FF001031846BD4680BC704700BF80B500AFFFF7D8FE80BD00BF80B500AF48F6090332
:40178000C1F6FF731B78DBB21A4648F60C03C1F6FF731B889BB213449AB248F60C03C1F6FF731A8048F29173C1F6FF734FF000021A704FF0010000F045F948F27973C1F6EA
:4017C000FF734FF003021A7080BD00BF80B582B000AF48F29173C1F6FF734FF004021A7048F28D73C1F6FF736FF07F021A7000F055F946F20703C4F200031B78DBB24FEA02
:4018000003239AB246F20603C4F200031B78DBB242EA03039BB2FB8048F28073C1F6FF731B889BB2FA889A4205D248F28073C1F6FF73FA881A8048F27973C1F6FF734FF0A7
:401840000B021A704FF00103184607F10807BD4680BD00BF80B483B000AF46F20003C4F200037B6046F22903C4F200031B78DBB203F00F03A3F10203DAB248F60A03C1F6DC
:40188000FF731A7048F60A03C1F6FF731B78DBB21A4648F60C03C1F6FF731B889BB213449AB248F60C03C1F6FF731A802FE048F28073C1F6FF735B687A681278D2B21A707D
:4018C00003F1010248F28073C1F6FF735A607B6803F101037B6048F60A03C1F6FF731B78DBB203F1FF33DAB248F60A03C1F6FF731A7048F28073C1F6FF731B889BB203F1AD
:40190000FF339AB248F28073C1F6FF731A8048F28073C1F6FF731B889BB2002B07D048F60A03C1F6FF731B78DBB2002BBFD148F28D73C1F6FF731B78DAB26FF07F0382EAD3
:401940000303DAB248F28D73C1F6FF731A7048F27973C1F6FF734FF00B021A7007F10C07BD4680BC704700BF80B500AF48F29173C1F6FF734FF000021A704FF0010000F0BD
:4019800061F848F27973C1F6FF734FF003021A7080BD00BF80B400AF48F29173C1F6FF734FF006021A7048F27973C1F6FF734FF006021A7048F28D73C1F6FF736FF07F0237
:4019C0001A7048F60A03C1F6FF734FF000021A704FF001031846BD4680BC704780B500AF48F27873C1F6FF731B78DBB2002B16D046F20803C4F2000348F27872C1F6FF72DC
:401A00001278D2B26FEA42626FEA5262D2B21A7048F27873C1F6FF734FF000021A7048F29173C1F6FF734FF000021A704FF0010000F008F848F27973C1F6FF734FF0030272
:401A40001A7080BD80B483B000AF0346FB7148F28073C1F6FF739B68002B19D048F28073C1F6FF739B68FA791A7048F28073C1F6FF739A6848F60C03C1F6FF731B889BB253
:401A8000538048F28073C1F6FF734FF000029A6007F10C07BD4680BC704700BF80B400AF48F60C03C1F6FF734FF000021A8048F28073C1F6FF739B68002B0FD048F280733E
:401AC000C1F6FF739B684FF000021A7048F28073C1F6FF739B684FF000025A80BD4680BC704700BF80B400AF46F20E03C4F200031B7848F29C73C1F6FF731B7BDBB203F0C6
:401B00000303012B0FD048F29C73C1F6FF73DB7BDAB26FF07F0382EA0303DAB248F29C73C1F6FF73DA7348F29C73C1F6FF734FF001025A7346F20B03C4F2000346F20B02DD
:401B4000C4F200021278D2B202F0FE021A70BD4680BC704780B400AF46F21E03C4F200031B7848F29C73C1F6FF731B7EDBB203F00303012B0FD048F29C73C1F6FF73DB7E3E
:401B8000DAB26FF07F0382EA0303DAB248F29C73C1F6FF73DA7648F29C73C1F6FF734FF001025A7646F20B03C4F2000346F20B02C4F200021278D2B202F0FD021A70BD46EC
:401BC00080BC704780B400AFBD4680BC704700BF80B500AFFFF778F980BD00BF80B582B000AF4FF00003BB7146F20403C4F200031B78FB7146F20003C4F200031B78DBB284
:401C00005BB2002B80F29A8046F20103C4F200031B78DBB203F1FF33052B00F21F8101A252F823F09F1C0000BF1C0000071D00005D1E00005D1E00003D1C000046F203039C
:401C4000C4F200031B78DBB2212B0FD100F022F948F28073C1F6FF731B889BB2002B00F0FF80FFF70DFD0346BB710CE146F20303C4F200031B78DBB2222B40F0F38000F01B
:401C800057F948F28073C1F6FF731B889BB2002B00F0EA80FFF7F4FC0346BB71F3E000F0A1F948F28073C1F6FF731B889BB2002B00F0DC80FFF7E4FC0346BB71E3E0FB7912
:401CC000002B40F0D58046F20203C4F200031B78DBB2002B40F0CE8048F28073C1F6FF734FF001021A80FA7948F61003C1F6FF731A4448F28073C1F6FF735A60FFF7C0FC36
:401D00000346BB71BFE0FB79002B40F0B58048F28073C1F6FF734FF001021A80FA7948F61803C1F6FF731A4448F28073C1F6FF735A60FFF7A5FC0346BB71A4E046F200032B
:401D4000C4F200031B78DBB25BB2002BC0F29B8046F20103C4F200031B78DBB2092B07D0092BC0F290800A2B11D00B2B5AD08AE000F038F948F28073C1F6FF731B889BB228
:401D8000002B7BD0FFF722FD0346BB717BE0FB79002B75D146F20203C4F200031B78DBB2002B6FD1FA7946F20303C4F200031B78D9B248F61003C1F6FF739954FA7948F6C2
:401DC0001003C1F6FF739B5CDAB2F97948F61403C1F6FF735B5CDBB29A4208D2FA7948F61403C1F6FF734FF00001995415E0FA7948F61403C1F6FF739B5CDBB2012B0CD9A1
:401E0000FA79F97948F61003C1F6FF735B5CD9B248F61403C1F6FF739954FFF7BBFD0346BB7130E0FB79002B2DD146F20203C4F200031B78DBB2012B25D8FA7946F20203D7
:401E4000C4F200031B78D9B248F61803C1F6FF739954FFF79FFD0346BB7114E000BF12E000BF10E000BF0EE000BF0CE000BF0AE000BF08E000BF06E000BF04E000BF02E030
:401E800000BF00E000BFBB79184607F10807BD4680BD00BF80B584B000AF48F29073C1F6FF731B78DBB203F1FF33DBB2184601F0C9F803467B6046F20403C4F200031B781C
:401EC000FB737B6803F110037B60FB7B4FEAC3037A6813447B607B685B687B60FA7B48F27C73C1F6FF739B5CDBB24FEAC3037A6813447B607B685B687B607B6803F12003CC
:401F00007B607B685B68BB60BB681B78DBB21A4648F28073C1F6FF731A8048F28073C1F6FF73BA685A6007F11007BD4680BD00BF80B584B000AF48F29073C1F6FF731B7821
:401F4000DBB203F1FF33DBB2184601F07BF803467B6046F20403C4F200031B78FB737B6803F110037B60FB7B4FEAC3037A6813447B607B685B687B60FA7B48F27C73C1F61E
:401F8000FF739B5CDBB24FEAC3037A6813447B607B685B687B607B6803F118037B607B685B68BB60BB6803F101031B78DBB24FEA03239AB2BB681B78DBB242EA03039BB261
:401FC0009AB248F28073C1F6FF731A80BB6803F1020248F28073C1F6FF735A6007F11007BD4680BD80B584B000AF48F28073C1F6FF734FF000021A8048F29073C1F6FF737C
:402000001B78DBB203F1FF33DBB2184601F01AF803467B6046F20303C4F200031B78FB7346F20403C4F200031B78BB737B6803F110037B60BB7B4FEAC3037A6813447B6089
:402040007B685B687B60BB7B002B49D1BA7B48F27C73C1F6FF739B5CDBB24FEAC3037A6813447B607B685B687B60FB7B002B37D0FB7B032B34D8FB7B03F1FF334FEAC303D2
:402080007A6813447B6046F20203C4F200031B78FB737B681B78FA7B9A4221D87B685B68BB60FA7B13464FEA430313444FEA8303BA681344BB60BB685A6848F28073C1F6D4
:4020C000FF735A60BB681A8848F28073C1F6FF731A80BB689A6848F28073C1F6FF739A6007F11007BD4680BD80B584B000AF4FF00003FB704FF000037B6048F28073C1F675
:40210000FF734FF000021A8046F20003C4F200031B78DBB25BB2002B80F2678146F20103C4F200031B78DBB20A2B00F2A68201A252F823F0AF2200007B2600007B26000035
:402140007B2600007B2600007B260000612100007B260000852300007B260000B123000046F20303C4F200031B78DBB2012B17D100F07EFF0346FB60FB685B681A4648F240
:402180008073C1F6FF735A6048F28073C1F6FF734FF012021A80FFF773FA0346FB707BE246F20303C4F200031B78DBB2022B36D146F20203C4F200031B78DBB2184600F0E3
:4021C00041FF0346FB60FB685B681A4648F28073C1F6FF735A6048F28073C1F6FF735B6803F103031B78DBB24FEA03239AB248F28073C1F6FF735B6803F102031B78DBB255
:4022000042EA03039BB27B8148F28073C1F6FF737A891A80FFF734FA0346FB703CE246F20303C4F200031B78DBB2032B3AD14FF000037B724AF2F043C0F200037B6009E0D3
:402240007B681B78DBB27A6813447B607B7A03F101037B7246F20203C4F200031B78DBB27A7A9A4204D27B681B78DBB2002BE7D17B681B78DBB2002B00F001827B681B78B4
:40228000DBB21A4648F28073C1F6FF731A8048F28073C1F6FF737A685A60FFF7F1F90346FB70F9E102F05EFD0346FB70F4E146F20003C4F200031B78DBB203F00303002BD3
:4022C00039D0022B40F0DD8148F28073C1F6FF734FF002021A8046F20403C4F200031B78DBB203F07F0148F29C72C1F6FF720B464FEA43030B444FEA830313449B78DAB218
:4023000048F61C03C1F6FF731A7048F61C03C1F6FF734FF000025A7048F28073C1F6FF7348F61C02C1F6FF725A60FFF7A9F90346FB7000BFB0E148F28073C1F6FF734FF037
:4023400002021A8048F28E73C1F6FF731B78DAB248F61C03C1F6FF731A7048F61C03C1F6FF734FF000025A7048F28073C1F6FF7348F61C02C1F6FF725A60FFF781F903464E
:40238000FB7089E148F28073C1F6FF734FF001021A8048F28073C1F6FF7348F29072C1F6FF725A60FFF76CF90346FB7000BF73E148F28073C1F6FF734FF001021A8046F216
:4023C0000403C4F200031B78DBB21A4648F27C73C1F6FF731A4448F28073C1F6FF735A60FFF74EF90346FB7056E146F20103C4F200031B78DBB203F1FF330A2B00F24C8186
:4024000001A252F823F000BFE524000099260000B3250000992600003524000099260000992600009926000055240000992600008B24000046F20203C4F200031B78DAB2EC
:4024400048F27873C1F6FF731A70FFF7A3FA0346FB7021E146F20203C4F200031B78DAB248F29073C1F6FF731A7048F28F73C1F6FF734FF001021A704FF0010000F016FAC5
:40248000FFF788FA0346FB7006E100F04BFF0346002B00F0F88048F28F73C1F6FF734FF001021A7000F01EFC46F20403C4F200031B78DBB21A4646F20403C4F200031B78B5
:4024C000DBB2194648F27C73C1F6FF735B5CD9B248F60803C1F6FF739954FFF75BFA0346FB70D9E046F20003C4F200031B78DBB203F00303012B2CD0012B0FD3022B40F0A5
:40250000C48046F20203C4F200031B78DBB2002B03D100F071FE0346FB7049E046F20203C4F200031B78DBB2012B11D148F28E73C1F6FF731B78DBB21A4602F0FD0248F2D3
:402540008E73C1F6FF731A70FFF724FA0346FB702EE046F20403C4F200031B78DBB2002B40F0958046F20403C4F200031B78DBB21A46194648F29473C1F6FF735B5CDBB2C4
:40258000194646F20203C4F200031B78DBB26FEA0303DBB201EA0303DBB2D9B248F29473C1F6FF739954FFF7F5F90346FB7073E072E046F20003C4F200031B78DBB203F016
:4025C0000303012B2BD0012B0ED3022B64D146F20203C4F200031B78DBB2002B59D100F083FD0346FB7057E046F20203C4F200031B78DBB2012B4ED148F28E73C1F6FF73B4
:402600001B78DBB243F00203DAB248F28E73C1F6FF731A70FFF7BEF90346FB703CE046F20403C4F200031B78DBB2002B34D146F20403C4F200031B78DBB21A46194648F2F2
:402640009473C1F6FF735B5CDBB2194646F20203C4F200031B78DBB26FEA0303DBB201EA0303DBB2D9B248F29473C1F6FF739954FFF790F90346FB700EE000BF0CE000BF9A
:402680000AE000BF08E000BF06E000BF04E000BF02E000BF00E000BFFB78184607F11007BD4680BD80B483B000AF4FF00103BB714FF00003FB71E7E0FA7946F28003C4F244
:4026C000000313444FF00C021A70B97948F29C72C1F6FF720B464FEA43030B444FEA830313445B79DBB2002B24D0B97948F29C72C1F6FF720B464FEA43030B444FEA8303D2
:4027000013441B79DBB25BB2002B09DAFA7946F20E03C4F2000313444FF00C021A7012E0FA7946F20E03C4F2000313444FF008021A7008E0FA7946F20E03C4F2000313441E
:402740006FF07F021A70FA7946F20C03C4F200031344B87948F29C71C1F6FF7102464FEA420202444FEA82020A4402F10802128892B24FEA122292B2D2B21A70FA7946F22B
:402780000D03C4F200031344B87948F29C71C1F6FF7102464FEA420202444FEA82020A4402F10802128892B2D2B21A70FA7946F28603C4F200031344B87948F29C71C1F6E8
:4027C000FF7102464FEA420202444FEA82020A4402F10602128892B2D2B21A70FA7946F28703C4F200031344B87948F29C71C1F6FF7102464FEA420202444FEA82020A4472
:4028000002F10602128892B24FEA122292B2D2B21A70FA7946F28403C4F200031344B87948F29C71C1F6FF7102464FEA420202444FEA82020A4402F10602128892B2D2B2AC
:402840001A70FA7946F28503C4F200031344B87948F29C71C1F6FF7102464FEA420202444FEA82020A4402F10602128892B24FEA122292B2D2B21A70BB7903F10103BB71E6
:40288000FB7903F11003FB71FB795BB2002BBFF613AF46F20A03C4F200034FF0FF321A7007F10C07BD4680BC704700BF80B588B000AF0346FB714FF00003FB824FF0000384
:4028C0003B7370E0397B48F29C72C1F6FF720B464FEA43030B444FEA830313444FF000021A70397B48F29C72C1F6FF720B464FEA43030B444FEA830313444FF000029A7012
:40290000397B48F29C72C1F6FF720B464FEA43030B444FEA830313444FF000025A70397B48F29C72C1F6FF720B464FEA43030B444FEA830313444FF00002DA70397B48F261
:402940009C72C1F6FF720B464FEA43030B444FEA830313444FF000025A71397B48F29C72C1F6FF720B464FEA43030B444FEA8303134403F108034FF000021A80397B48F2BF
:402980009C72C1F6FF720B464FEA43030B444FEA8303134403F108034FF000029A703B7B03F101033B733B7B082B8BD9FB79002B1AD04FF00003BB7313E0BA7B48F27C736F
:4029C000C1F6FF734FF000019954BA7B48F60803C1F6FF734FF000019954BB7B03F10103BB73BB7B002BE8D048F29073C1F6FF731B78DBB2002B00F0718148F29073C1F6B1
:402A0000FF731B78DBB203F1FF33DBB2184600F019FB0346BB61BB695B683B613B6903F107031B7803F04003002B0ED048F28E73C1F6FF731B78DBB243F00103DAB248F212
:402A40008E73C1F6FF731A700DE048F28E73C1F6FF731B78DBB21A4602F0FE0248F28E73C1F6FF731A70BB6903F10803BB61BB691B783B734FF00103BB73CBE0BB695B684A
:402A8000FB614FF000037B73BBE0BA7BFB699B7803F07F039A4240F0AC80B97B48F29C72C1F6FF720B464FEA43030B444FEA8303134403F108031B889AB2FB699B889A426C
:402AC00011D2B97BFB69988848F29C72C1F6FF720B464FEA43030B444FEA8303134403F1080302461A80FB691B781A4648F27C73C1F6FF739B5CDAB2FB695B789A4278D12D
:402B0000FB69DB7803F00303012B14BF00230123FB73FB699B785BB2002B25DAB97B48F29C72C1F6FF720B464FEA43030B444FEA830313444FF001025A70B87BFB7B002BCA
:402B400002D04FF0070101E04FF00D0148F29C72C1F6FF7203464FEA430303444FEA830313440A465A7124E0B97B48F29C72C1F6FF720B464FEA43030B444FEA8303134481
:402B80004FF000025A70B87BFB7B002B02D04FF0050101E04FF0090148F29C72C1F6FF7203464FEA430303444FEA830313440A465A71B97BFB69987848F29C72C1F6FF722D
:402BC0000B464FEA43030B444FEA8303134402461A71B97BFB69D87848F29C72C1F6FF720B464FEA43030B444FEA8303134402461A707B7B03F101037B73FB6903F108032F
:402C0000FB617A7B3B7B9A42FFF43FAFBB7B03F10103BB73BB7B082B7FF630AFBB695B68FB614FF00003BB731CE0FB699B7803F07F01FB69187848F29C72C1F6FF720B4669
:402C40004FEA43030B444FEA8303134403F1080302469A70BB7B03F10103BB73FB6903F10803FB61BA7B3B7B9A42DED300F014FA024648F29873C1F6FF731A604FF001031B
:402C80003B7326E0397B48F29C72C1F6FF720B464FEA43030B444FEA8303134403F10603FA8A1A80397B48F29C72C1F6FF720B464FEA43030B444FEA8303134403F1080394
:402CC0001B889AB2FB8A1344FB823B7B03F101033B733B7B082BD5D9FFF7E4FC07F12007BD4680BD80B584B000AF48F29073C1F6FF731B78DBB2002B00F09F8148F290734E
:402D0000C1F6FF731B78DBB203F1FF33DBB2184600F098F90346BB60BB6803F10803BB60BB681B78FB70BB685B68FB604FF000037B717DE1FB681B781A4648F27C73C1F6F3
:402D4000FF739B5CDAB2FB681B78194648F60803C1F6FF735B5CDBB29A4200F06181FB681B781A4648F27C73C1F6FF739B5CDAB2FB685B789A4240F05381FB681A7846F237
:402D80000403C4F200031B78DBB29A4240F04881FB689B7803F07F033B713B7903F1FF33DBB24FEA0313FB71FB68DB7803F00303012B14BF00230123BB71FB689B785BB201
:402DC000002B25DA397948F29C72C1F6FF720B464FEA43030B444FEA830313444FF001025A703879BB79002B02D04FF0070101E04FF00D0148F29C72C1F6FF7203464FEAFD
:402E0000430303444FEA830313440A465A7124E0397948F29C72C1F6FF720B464FEA43030B444FEA830313444FF000025A703879BB79002B02D04FF0050101E04FF009011D
:402E400048F29C72C1F6FF7203464FEA430303444FEA830313440A465A71FA7946F20E03C4F2000313444FF001021A703979FB68988848F29C72C1F6FF720B464FEA430395
:402E80000B444FEA8303134403F1080302461A803979FB68987848F29C72C1F6FF720B464FEA43030B444FEA8303134402461A713979FB68D87848F29C72C1F6FF720B4609
:402EC0004FEA43030B444FEA8303134402461A70397948F29C72C1F6FF720B464FEA43030B444FEA830313444FF00002DA70FA7946F20C03C4F200031344387948F29C7178
:402F0000C1F6FF7102464FEA420202444FEA82020A4402F10802128892B24FEA122292B2D2B21A70FA7946F20D03C4F200031344387948F29C71C1F6FF7102464FEA42020B
:402F400002444FEA82020A4402F10802128892B2D2B21A70FA7946F28603C4F200031344387948F29C71C1F6FF7102464FEA420202444FEA82020A4402F10602128892B2C5
:402F8000D2B21A70FA7946F28703C4F200031344387948F29C71C1F6FF7102464FEA420202444FEA82020A4402F10602128892B24FEA122292B2D2B21A70FA7946F28403BF
:402FC000C4F200031344387948F29C71C1F6FF7102464FEA420202444FEA82020A4402F10602128892B2D2B21A70FA7946F28503C4F200031344387948F29C71C1F6FF7143
:4030000002464FEA420202444FEA82020A4402F10602128892B24FEA122292B2D2B21A707B7903F101037B71FB6803F10803FB607A79FB789A42FFF47DAE07F11007BD46DB
:4030400080BD00BF80B584B000AF0346FB7100F00FF80346FB60FB7903F101034FEAC302FB6813445B68184607F11007BD4680BD80B400AF48F28C73C1F6FF731B78DBB2F3
:403080004AF21872C0F200024FEAC30313445B681846BD4680BC704780B582B000AF48F29073C1F6FF731B78DBB203F1FF33DBB21846FFF7C7FF03463B603B685B6803F182
:4030C00004031B78FB713B6803F110033B60FB794FEAC3033A6813443B603B685B68184607F10807BD4680BD80B582B000AF4FF00003FB7146F20403C4F200031B78DBB297
:4031000003F07F037B717B7903F1FF33DBB24FEA0313BB717B79002B67D07B79082B64D87979787948F29C72C1F6FF7203464FEA430303444FEA830313449B78DBB243F008
:403140000103D8B248F29C72C1F6FF720B464FEA43030B444FEA8303134402469A70797948F29C72C1F6FF720B464FEA43030B444FEA830313444FF00002DA70797948F27C
:403180009C72C1F6FF720B464FEA43030B444FEA830313444FF002025A70797948F29C72C1F6FF720B464FEA43030B444FEA830313441B79DBB25BB2002B09DABA7946F259
:4031C0000E03C4F2000313446FF072021A7008E0BA7946F20E03C4F2000313446FF076021A70FEF7D7FB0346FB71FB79184607F10807BD4680BD00BF80B582B000AF4FF0D3
:403200000003FB7146F20403C4F200031B78DBB203F07F037B717B7903F1FF33DBB24FEA0313BB717B79002B75D07B79082B72D87879797948F29C72C1F6FF720B464FEAD2
:4032400043030B444FEA830313449B78DBB21A4602F0FE0248F29C71C1F6FF7103464FEA430303444FEA83030B449A70797948F29C72C1F6FF720B464FEA43030B444FEA62
:40328000830313444FF00002DA70797948F29C72C1F6FF720B464FEA43030B444FEA830313441B79DBB25BB2002B18DA797948F29C72C1F6FF720B464FEA43030B444FEA0A
:4032C000830313444FF000025A70BA7946F20E03C4F2000313444FF00C021A7017E0797948F29C72C1F6FF720B464FEA43030B444FEA830313444FF001025A70BA7946F27E
:403300000E03C4F2000313444FF009021A70FEF741FB0346FB71FB79184607F10807BD4680BD00BF80B584B000AF4FF00103BB7146F20403C4F200031B78FB7148F290731F
:40334000C1F6FF731B78DBB203F1FF33DBB21846FFF778FE0346BB60BB685B6803F104031B78FB73FA79FB7B9A4202D2FB79002B03D04FF00003BB7118E0FA79F97948F2B1
:403380007C73C1F6FF735B5CD9B248F60803C1F6FF739954FA7946F20203C4F200031B78D9B248F27C73C1F6FF739954BB79184607F11007BD4680BD80B483B000AF4FF058
:4033C0000003FB7146F20003C4F200031B78DBB25BB2002B04DA46F20103C4F200031B78FB79184607F10C07BD4680BC704700BF80B500AF4FF0010000F066F94FF0100058
:4034000000F070FF4FF0100000F088FF4FF0030048F24A114FF400424FF0100300F0BEFA80BD00BF80B500AF44F2AA33C4F2000344F2AA32C4F200021278D2B242F0010258
:40344000D2B21A7044F2AA33C4F2000344F2AA32C4F200021278D2B242F01002D2B21A7044F2BA33C4F2000344F2BA32C4F200021278D2B242F00102D2B21A7044F2BA331E
:40348000C4F2000344F2BA32C4F200021278D2B242F01002D2B21A7048F20413C1F6FF731B78DBB2012B47D144F2F863C4F2000344F2F862C4F200021278D2B242F0020265
:4034C000D2B21A7044F2F963C4F2000344F2F962C4F200021278D2B242F00202D2B21A7045F69103C4F2000345F69102C4F200021278D2B242F00302D2B21A704FF0030035
:4035000000F09EFF44F2F863C4F2000344F2F862C4F200021278D2B202F0FD021A7044F2F963C4F2000344F2F962C4F200021278D2B202F0FD021A7045F67703C4F2000358
:4035400045F67702C4F200021278D2B242F00602D2B21A7044F2A133C4F2000344F2A132C4F200021278D2B242F00102D2B21A7044F2B133C4F2000344F2B132C4F2000210
:403580001278D2B242F00102D2B21A7044F2A233C4F2000344F2A232C4F200021278D2B242F00102D2B21A7044F2B233C4F2000344F2B232C4F200021278D2B242F00102FA
:4035C000D2B21A7080BD00BF80B500AF48F25663C1F6FF731B78002B10D148F25763C1F6FF731B78DBB2002B01D1FFF701FF48F25663C1F6FF734FF001021A70FFF712FF03
:4036000080BD00BF80B400AF44F60063C4F2000344F60062C4F200021278D2B242F00102D2B21A70BD4680BC704700BF80B485B000AF0346FB7148F25563C1F6FF731B7880
:40364000DBB2012B0CD148F25463C1F6FF731B78FB73FB7B012B12D0FB79002BF3D00EE044F60163C4F200031B78DBB203F00103FB73FB7B012B02D0FB79002BF0D0FB7BA0
:40368000184607F11407BD4680BC704780B483B000AF44F61263C4F200031B889BB27B607B684FEA034244F61063C4F200031B889BB242EA03037B607B68184607F10C074A
:4036C000BD4680BC704700BF80B582B000AF0346FB7148F25563C1F6FF734FF000021A7048F25663C1F6FF731B78002B68D145F69603C4F200034FF007021A7045F697031D
:40370000C4F200034FF000021A7045F69E03C4F200034FF000021A7045F60733C4F2000345F60732C4F200021278D2B242F01802D2B21A7045F69303C4F200034FF0000218
:403740001A7045F68833C4F200034FF000021A7045F68933C4F200034FF000021A7045F68003C4F200034FF00A021A7045F68103C4F200034FF000021A7045F68203C4F2C5
:4037800000034FF07A021A7045F68303C4F200034FF000021A7045F68D03C4F200034FF000021A7044F60163C4F200034FF014021A7044F61463C4F200034FF001021A70C1
:4037C000FB79012B40F0E58044F60063C4F200034FF034021A7044F60263C4F200034FF004021A7044F60363C4F200034FF006021A7044F60463C4F200034FF000021A70C9
:4038000044F60563C4F200034FF000021A7044F60663C4F200034FF03F021A7044F60863C4F200034FF000021A7044F60963C4F200034FF000021A7044F60A63C4F2000349
:403840004FF000021A7045F68403C4F200034FF050021A7045F68503C4F200034FF00A021A7045F68603C4F200034FF03C021A7045F68703C4F200034FF000021A7045F68E
:403880008803C4F200034FF012021A7045F68903C4F200034FF013021A7045F68A03C4F200034FF044021A7045F68B03C4F200034FF048021A7045F68C03C4F200034FF0A2
:4038C00001021A7045F68E03C4F200034FF001021A7045F68F03C4F200034FF011021A7045F69003C4F200034FF019021A7045F69103C4F200036FF068021A704FF05200B1
:4039000000F01AF945F69403C4F200034FF058021A7045F69503C4F200034FF000021A7045F69A03C4F200034FF005021A7045F69B03C4F200034FF002021A7045F69C03E5
:40394000C4F200034FF001021A7045F69D03C4F200034FF000021A704FF0000000F018FD48F20813C1F6FF7342F222221A604FF01D004FF0070100F0ABFD4FF01D0043F6DF
:40398000CD31C0F2000100F06FFD4FF01D0000F0CDFD07F10807BD4680BD00BF80B487B000AFF871B9807A807B70FB79A3F10403062B5DD801A252F823F000BFD9390000F7
:4039C000713A0000713A0000FF390000253A0000713A00004B3A00007B780F2B07D940F21813C4F600131B78DBB2FB7343E040F21C13C4F600131B78DBB2FB733BE07B78F8
:403A00000F2B07D940F21913C4F600131B78DBB2FB7330E040F21D13C4F600131B78DBB2FB7328E07B780F2B07D940F21A13C4F600131B78DBB2FB731DE040F21E13C4F6FD
:403A400000131B78DBB2FB7315E07B780F2B07D940F21B13C4F600131B78DBB2FB730AE040F21F13C4F600131B78DBB2FB7302E04FF00003FB73FB79002B11D0FB79012B8D
:403A80000ED0FB79022B0BD0FB79032B08D0FB79052B05D0FB79062B02D0FB79092B03D14FF000033B8206E097F90F309BB24FEA43139BB23B823A8ABB8813447B827B8ACC
:403AC0007A8802FB03F37B617B694FEAD3337B827B780D2B12D87A8A7B786FEA030303F10F0342FA03F37B8244F60E63C4F200037A7802F10102D2B21A7006E044F60E634A
:403B0000C4F200034FF00F021A7044F60C63C4F200037A8AD2B21A7044F60D63C4F200037A8A4FEA122292B2D2B21A7007F11C07BD4680BC704700BF80B582B000AF034629
:403B4000FB7144F2F863C4F2000344F2F862C4F200021278D2B242F00302D2B21A7044F2F963C4F2000344F2F962C4F200021278D2B242F00302D2B21A7045F69203C4F287
:403B80000003FA791A704FF0030000F059FC44F2F863C4F2000344F2F862C4F200021278D2B202F0FC021A7044F2F963C4F2000344F2F962C4F200021278D2B202F0FC02D2
:403BC0001A7007F10807BD4680BD00BF80B400AFBD4680BC704700BF80B500AF48F25C63C1F6FF731B78002B08D100F00BF848F25C63C1F6FF734FF001021A7000F054F8E3
:403C000080BD00BF80B582B000AF46F27B43C4F200031B78DBB223F03F03BB7146F27B43C4F20003BA7942F00A02D2B21A7046F29B43C4F2000346F29B42C4F200021278CE
:403C4000D2B242F00102D2B21A704FF0640000F041F84FF0640000F063F84FF00A0000F06FF846F28B43C4F200034FF000021A7000F0AEFB0346FB7146F29B43C4F200037C
:403C800046F29B42C4F200021278D2B242F01002D2B21A70FB79184600F09EFB00F02AF807F10807BD4680BD80B400AF46F27B43C4F2000346F27B42C4F200021278D2B2D6
:403CC0006FEA42626FEA5262D2B21A70BD4680BC704700BF80B483B000AF0346FB7146F20B43C4F20003FA791A7007F10C07BD4680BC704780B400AF04E046F25B43C4F29C
:403D000000031B7846F26B43C4F200031B78DBB203F01003002BF0D1BD4680BC704700BF80B483B000AF0346FB7146F24B43C4F20003FA791A7007F10C07BD4680BC70473F
:403D400080B483B000AF0346FB7146F22B43C4F20003FA791A7007F10C07BD4680BC704780B485B000AF0346FB7145F26013C4F200031B78DBB223F00803FB7345F2601395
:403D8000C4F20003FA794FEAC202D2B202F00802F97B42EA0102D2B21A7007F11407BD4680BC704780B500AF4FF0280000F024FB4FF0030000F050FA4FF0050000F01CFB7F
:403DC0004FF0030000F048FA4FF00F0000F014FB4FF0030000F040FA4FF0010000F00CFB4FF0020000F038FA4FF0050000F004FB4FF0060000F0B8F84FF00E0000F0B4F8FB
:403E00004FF02C0000F0B0F84FF0080000F0ACF84FF0010000F0A8F84FF00C0000F0A4F84FF0030000F0A0F84FF0050000F0E4FA80BD00BF80B500AF4FF00C0000F094F87A
:403E400048F25D63C1F6FF734FF001021A7080BD80B500AF48F25E63C1F6FF731B78002B08D1FFF79FFF48F25E63C1F6FF734FF001021A70FFF7DEFF80BD00BF80B582B0BD
:403E800000AF02460B46FA71BB71FB79032B2AD801A252F823F000BFA93E0000B93E0000C93E0000D93E0000BB79A3F18003DBB2184600F059F816E0BB79A3F14003DBB2BF
:403EC000184600F051F80EE0BB79A3F16C03DBB2184600F049F806E0BB79A3F12C03DBB2184600F041F807F10807BD4680BD00BF80B584B000AF78604FF00103BB737B68AF
:403F00001B78FB730CE0FB7B184600F011F8BA7B7B6813441B78FB73BB7B03F10103BB73FB7B002BEFD107F11007BD4680BD00BF80B584B000AF0346FB7100F035F8FB792E
:403F40004FEA1313FB73FB7B184600F02FF9FB7903F00F03FB73FB7B184600F027F907F11007BD4680BD00BF80B584B000AF0346FB71FB794FEA1313FB7300F015F8FB7B2E
:403F800003F00F03FB73FB7B184600F065F9FB7903F00F03FB73FB7B184600F05DF907F11007BD4680BD00BF80B582B000AF4FF00003FB7145F22013C4F2000345F220120D
:403FC000C4F200021278D2B202F080021A7045F22213C4F200031B78DBB223F00F03FB7145F22213C4F20003FA7942F00F02D2B21A7045F22313C4F200031B78DBB223F0E5
:404000000F03FB7145F22313C4F20003FA791A7045F22413C4F200031B78DBB223F00F03FB7145F22413C4F20003FA791A7045F22013C4F2000345F22012C4F20002127815
:40404000D2B202F0DF021A7045F22013C4F2000345F22012C4F200021278D2B242F04002D2B21A704FF0000000F0EAF945F22013C4F2000345F22012C4F200021278D2B227
:4040800042F01002D2B21A704FF0010000F0D8F945F22113C4F200031B78FB7145F22013C4F2000345F22012C4F200021278D2B202F0EF021A704FF0000000F0C1F9FB796E
:4040C00003F00803FB7145F22013C4F2000345F22012C4F200021278D2B242F01002D2B21A704FF0010000F0ABF945F22013C4F2000345F22012C4F200021278D2B202F09A
:40410000EF021A70FB79002BACD145F22013C4F2000345F22012C4F200021278D2B202F0BF021A7045F22013C4F2000345F22012C4F200021278D2B202F080021A7045F2D2
:404140002213C4F200031B78DBB223F00F03FB7145F22213C4F20003FA791A7045F22313C4F200031B78DBB223F00F03FB7145F22313C4F20003FA7942F00F02D2B21A70BD
:4041800045F22413C4F200031B78DBB223F00F03FB7145F22413C4F20003FA7942F00F02D2B21A7007F10807BD4680BD80B582B000AF0346FB71FFF7F7FE45F22013C4F21F
:4041C000000345F22012C4F200021278D2B242F02002D2B21A7045F22013C4F2000345F22012C4F200021278D2B202F0BF021A7045F22013C4F2000345F22012C4F2000258
:404200001278D2B202F0F0021A7045F22013C4F2000345F22012C4F200021278D1B2FA7941EA0202D2B242F01002D2B21A704FF0010000F005F945F22013C4F2000345F2B1
:404240002012C4F200021278D2B202F0EF021A7007F10807BD4680BD80B582B000AF0346FB7145F22013C4F2000345F22012C4F200021278D2B202F09F021A7045F22013EE
:40428000C4F2000345F22012C4F200021278D2B202F0F0021A7045F22013C4F2000345F22012C4F200021278D1B2FA7941EA0202D2B242F01002D2B21A704FF0010000F0AF
:4042C000BFF845F22013C4F2000345F22012C4F200021278D2B202F0EF021A7007F10807BD4680BD80B483B000AF0346FB7144F20213C4F2000344F20212C4F200021278A6
:40430000D1B2FA7902F0F80241EA0202D2B21A7007F10C07BD4680BC704700BF80B483B000AF0346FB7144F28203C4F2000344F28202C4F200021278D1B2FA7902F0F80281
:4043400041EA0202D2B21A7007F10C07BD4680BC704700BF80B582B000AF4FF00003FB7107E0FB79184600F02BFCFB7903F10103FB71FB79012BF4D948F20C13C1F6FF73E5
:404380004FF0FF321A7007F10807BD4680BD00BF80B582B000AF0346FB71FFF7DBFFFB79184600F0E7FB48F20C13C1F6FF73FA791A7007F10807BD4680BD00BF0000000039
:4043C0000230800803D000BF01380046FCD17047EFF3108072B6704780F31088704700BF80B483B000AF0346FB7101BE07F10C07BD4680BC704700BF80B582B000AF786064
:404400000BE048F21C13C1F6FF731B681846FFF7D7FF7B68A3F500437B607B68B3F5004FEFD848F21413C1F6FF731B687A6802FB03F31846FFF7C4FF07F10807BD4680BDD8
:4044400080B582B000AF0346FB80FA8848F21813C1F6FF731B7803FB02F31846FFF7B0FF07F10807BD4680BD80B584B000AF03463960FB714EF60853CEF200031B68FB60DC
:40448000FB791F2B07D9FB791F2B8CBF002301231846FFF7A5FFFB7903F01F0303F110034FEA8302FB6813441B68BB60FB7903F01F0303F110034FEA8302FB6813443A68C6
:4044C0001A60BB68184607F11007BD4680BD00BF80B582B000AF02460B46FA71BB71BB79072B07D9BB79072B8CBF002301231846FFF776FFFB791F2B07D9FB791F2B8CBFBF
:40450000002301231846FFF76BFFFB7903F01F0303F1604303F56443BA794FEA4212D2B21A7007F10807BD4680BD00BF80B584B000AF0346FB71FB791F2B07D9FB791F2BBA
:404540008CBF002301231846FFF74AFF4EF20013CEF20003FB60FB7903F01F034FF0010202FA03F31A46FB681A6007F11007BD4680BD00BF80B582B000AF4FF00003FB71CF
:4045800007E0FB79184600F0A7FAFB7903F10103FB71FB79032BF4D948F22013C1F6FF734FF0FF321A7007F10807BD4680BD00BF80B582B000AF0346FB7148F22013C1F6E5
:4045C000FF731B78FF2B07D048F22013C1F6FF731B78184600F080FAFB79184600F034FA48F22013C1F6FF73FA791A7007F10807BD4680BD80B483B000AF0346FB71FEE74A
:4046000080B584B000AFF860B9607A60F868B9687A6800F02FFE07F11007BD4680BD00BF80B483B000AF48F26063C1F6FF734FF000021A6047F20063C4F200034FF01002EC
:404640001A7047F21003C4F200034FF001021A7047F21903C4F200034FF000021A7047F60003C4F200034FF4E8721A8047F60203C4F200034FF001021A7047F60303C4F216
:4046800000034FF003021A7047F60403C4F2000340F2C002C0F2000292B21A8047F60603C4F2000347F608021A8047F20463C4F200034FF000021A8047F20663C4F2000337
:4046C0004FF480421A8047F22903C4F200034FF009021A7047F23903C4F200034FF00D021A7047F26903C4F200034FF01B021A7047F27903C4F200034FF01F021A7047F24E
:404700001403C4F200034FF001021A7047F60003C4F200031B889BB2002BF7D14FF000037B6015E07B684FEAC30247F60C03C4F2000313441A4679684AF2C833C0F2000385
:4047400053F821309BB213807B6803F101037B607B68392BE6D947F21403C4F200034FF001021A7047F21803C4F200031B78DBB203F00103DBB2002BF4D147F22803C4F271
:4047800000031B78DBB203F00103DBB2002BF4D147F23803C4F200031B78DBB203F00103DBB2002BF4D147F26803C4F200031B78DBB203F00103DBB2002BF4D147F27803FC
:4047C000C4F200031B78DBB203F00103DBB2002BF4D107F10C07BD4680BC704780B582B000AF44F28003C4F200034FF016021A8044F28203C4F200034FF018021A7044F265
:404800008403C4F200034FF0EF021A8044F28603C4F200034FF019021A7044F20010C4F2000040F67851C4F600014FF00402FFF7E7FE44F20033C4F200034FF006021A7049
:4048400044F21223C4F2000343F216321A8044F21023C4F200034FF005021A7044F21023C4F200031B7843F2C8233B6007E04FF07800FFF7A5FD3B6803F1FF333B603B685E
:40488000002B08D044F21023C4F200031B78DBB25BB2002BEBDB3B68002B03D14FF00100FFF7A8FE44F20003C4F200034FF040021A7044F20023C4F200034FF070021A70ED
:4048C00044F22223C4F200034FF4E2621A8044F22023C4F2000341F251021A804FF00003FB714FF019033B6019E0FB794FEA4303DAB244F22523C4F200031B78DBB203F0AB
:40490000010342EA0303DBB203F00303FB714FF07800FFF755FD3B6803F1FF333B603B68002B02D0FB79032BDFD144F20403C4F200034FF480721A8044F20403C4F200033F
:404940004FF007021A7044F20603C4F200034FF000021A7044F20803C4F200034FF048021A7044F20403C4F200034FF000021A7044F20903C4F200034FF000021A7044F2D8
:404980000103C4F200034FF002021A7044F20B03C4F200034FF004021A7044F2A233C4F2000344F2A232C4F200021278D2B242F00302D2B21A7044F2A133C4F2000344F2CF
:4049C000A132C4F200021278D2B242F00102D2B21A7044F2A033C4F2000344F2A032C4F200021278D2B26FEA42626FEA5262D2B21A7007F10807BD4680BD00BF80B483B0C6
:404A000000AF40F2CF13C4F600131B78FB7145F66E03C4F20003FA7902F007021A7045F66F03C4F20003FA794FEA1212D2B21A7045F67603C4F200034FF044021A7007F1D2
:404A40000C07BD4680BC704780B483B000AF0346FB71FB79032B39D8FA79FB791344FB71FA794AF29433C0F2000353F82220F9794AF29433C0F2000353F821301978F87985
:404A80004AF2B433C0F200031B5C41EA0303DBB21370FB7903F10103FB71FA794AF29433C0F2000353F82220F9794AF29433C0F2000353F821301978F8794AF2B433C0F239
:404AC00000031B5C41EA0303DBB2137007F10C07BD4680BC704700BF80B483B000AF0346FB71FB79032B3FD8FA79FB791344FB71FA794AF29433C0F2000353F82220F979E3
:404B00004AF29433C0F2000353F821301978F8794AF2B433C0F200031B5C6FEA0303DBB201EA0303DBB21370FB7903F10103FB71FA794AF29433C0F2000353F82220F979E1
:404B40004AF29433C0F2000353F821301978F8794AF2B433C0F200031B5C6FEA0303DBB201EA0303DBB2137007F10C07BD4680BC704700BF80B483B000AF0346FB71FB79A4
:404B8000012B18D8FA794AF2BC33C0F2000353F82220F9794AF2BC33C0F2000353F821301978F8794AF2C433C0F200031B5C41EA0303DBB2137007F10C07BD4680BC704768
:404BC00080B483B000AF0346FB71FB79012B1BD8FA794AF2BC33C0F2000353F82220F9794AF2BC33C0F2000353F821301978F8794AF2C433C0F200031B5C6FEA0303DBB23C
:404C000001EA0303DBB2137007F10C07BD4680BC704700BF80B500AF72B644F60003C4F200034FF001021A70FFF7D8FD44F60003C4F200036FF03E021A7044F2E863C4F2C4
:404C4000000344F2E862C4F200021278D2B242F00402D2B21A70FFF7E3FC45F20303C4F2010345F20302C4F201021278D2B242F00202D2B21A7045F21303C4F2010345F254
:404C80001302C4F201021278D2B242F00202D2B21A7044F2A033C4F2000344F2A032C4F200021278D2B242F04002D2B21A7044F2C233C4F2000344F2C232C4F20002127872
:404CC000D2B242F01002D2B21A7045F2F010C4F2000040F65051C4F600014FF00A02FFF78FFC45F22210C4F2000040F65C51C4F600014FF00802FFF783FC45F24210C4F2D9
:404D0000000040F66451C4F600014FF00802FFF777FC45F26010C4F2000040F66C51C4F600014FF00A02FFF76BFC44F22233C4F2000344F22232C4F200021278D2B242F0A2
:404D40000802D2B21A70FFF759FE44F2B030C4F2000044F2A031C4F200014FF00E02FFF74FFC80BD80B582B000AF4FF00003BB714FF00003FB7146F20003C4F200031B78BE
:404D8000DBB203F00303012B02D0022B07D01DE046F20403C4F200031B78FB7116E046F20403C4F200031B78DBB203F07F0148F29C72C1F6FF720B464FEA43030B444FEA2E
:404DC0008303134403F108039B78FB7148F29873C1F6FF731A68FB7913441B78032B03D1FCF7FCFE0346BB71BB79184607F10807BD4680BD81F0004102E000BF83F00043C4
:404E000030B54FEA41044FEA430594EA050F08BF90EA020F1FBF54EA000C55EA020C7FEA645C7FEA655C00F0E2804FEA5454D4EB5555B8BF6D420CDD2C4480EA020281EAEE
:404E4000030382EA000083EA010180EA020281EA0303362D88BF30BD11F0004F4FEA01314FF4801C4CEA113102D0404261EB410113F0004F4FEA03334CEA133302D0524244
:404E800063EB430394EA050F00F0A780A4F10104D5F1200E0DDB02FA0EFC22FA05F2801841F1000103FA0EF2801843FA05F359410EE0A5F120050EF1200E012A03FA0EFCEF
:404EC00028BF4CF0020C43FA05F3C01851EBE37101F0004507D54FF0000EDCF1000C7EEB00006EEB0101B1F5801F1BD3B1F5001F0CD349085FEA30004FEA3C0C04F10104CC
:404F00004FEA445212F5800F80F09A80BCF1004F08BF5FEA500C50F1000041EB045141EA050130BD5FEA4C0C404141EB010111F4801FA4F10104E9D191F0000F04BF014658
:404F40000020B1FA81F308BF2033A3F10B03B3F120020CDA0C3208DD02F1140CC2F10C0201FA0CF021FA02F10CE002F11402D8BFC2F1200C01FA02F120FA0CFCDCBF41EA4D
:404F80000C019040E41AA2BF01EB0451294330BD6FEA04041F3C1CDA0C340EDC04F11404C4F1200220FA04F001FA02F340EA030021FA04F345EA030130BDC4F10C04C4F184
:404FC000200220FA02F001FA04F340EA0300294630BD21FA04F0294630BD94F0000F83F4801306BF81F480110134013D4EE77FEA645C18BF7FEA655C29D094EA050F08BF11
:4050000090EA020F05D054EA000C04BF1946104630BD91EA030F1EBF0021002030BD5FEA545C05D14000494128BF41F0004130BD14F580043CBF01F5801130BD01F00045B8
:4050400045F0FE4141F470014FF0000030BD7FEA645C1ABF194610467FEA655C1CBF0B46024650EA013406BF52EA033591EA030F41F4002130BD00BF90F0000F04BF0021EB
:40508000704730B54FF4806404F132044FF000054FF0000150E700BF90F0000F04BF0021704730B54FF4806404F1320410F0004548BF40424FF000013EE700BF42004FEABA
:4050C000E2014FEA31014FEA02701FBF12F07F4393F07F4F81F06051704792F0000F14BF93F07F4F704730B54FF4607401F0004521F0004120E700BF50EA010208BF70477A
:4051000030B54FF000050AE050EA010208BF704730B511F0004502D5404261EB41014FF4806404F132045FEA915C3FF4DCAE4FF003025FEADC0C18BF03325FEADC0C18BFC1
:40514000033202EBDC02C2F1200300FA03FC20FA02F001FA03FE40EA0E0021FA02F11444C1E600BF4FF0FF3C06E000BF4FF0010C02E000BF4FF0010C4DF804CD4FEA410C60
:405180007FEA6C5C4FEA430C18BF7FEA6C5C1BD001B050EA410C0CBF52EA430C91EA030F02BF90EA020F0020704710F1000F91EA030F58BF994208BF90422CBFD8176FEAAA
:4051C000E37040F0010070474FEA410C7FEA6C5C02D150EA013C07D14FEA430C7FEA6C5CD6D152EA033CD3D05DF8040B704700BF8446104662468C461946634600E000BF02
:4052000001B5FFF7B7FF002848BF10F1000F01BD4DF808EDFFF7F4FF0CBF012000205DF808FB00BF4DF808EDFFF7EAFF34BF012000205DF808FB00BF4DF808EDFFF7E0FF56
:4052400094BF012000205DF808FB00BF4DF808EDFFF7CEFF94BF012000205DF808FB00BF4DF808EDFFF7C4FF34BF012000205DF808FB00BF032A2DE9F0070BD83AB1002372
:4052800011F803C000F803C001339342F8D1BDE8F007704782180C46034603E014F8011C03F8011C03F003061946A44601330134002EF3D11CF00304634608BFC1EB020C0C
:4052C00068D06542C4F1040A0CEB050733464FEACA0A5CF805604FEAC408551A08E057F8044F264604FA0AF449EA0404CC5004335C18032D26FA08F9A5F104050CEB030672
:40530000EDDC002302E0F15CE154013319199142F9D3BCE753F8404C41F8404C53F83C4C41F83C4C53F8384C41F8384C53F8344C41F8344C53F8304C41F8304C53F82C4CF6
:4053400041F82C4C53F8284C41F8284C53F8244C41F8244C53F8204C41F8204C53F81C4C41F81C4C53F8184C41F8184C53F8144C41F8144C53F8104C41F8104C53F80C4C8D
:4053800041F80C4C53F8084C41F8084C53F8044C41F8044C1C460D4640334031BCF13F0FACF1400CB6DC21462B46541B0FE051F8105C43F8105C51F80C5C43F80C5C51F8CE
:4053C000085C43F8085C51F8045C43F8045C0F2C0D469C4601F1100103F11003A4F11004E5DCCCEB0201002303E0EC584CF8034004335E19032903EB0C04A1F10401F4DCB8
:405400007FE700BF032AC9B230B407D822B10023C15401339342FBD130BC704700EB020C034601E003F8011C03F003041A460133002CF7D14FF00133C2EB0C0403FB01F37A
:405440001FE042F8403C42F83C3C42F8383C42F8343C42F8303C42F82C3C42F8283C42F8243C42F8203C42F81C3C42F8183C42F8143C42F8103C42F80C3C42F8083C42F8ED
:40548000043C154640323F2CA4F14004D9DC2A46C5EB0C0407E042F8103C42F80C3C42F8083C42F8043C154610320F2CA4F11004F1DC2A46C5EB0C0501E042F8043C14469B
:4054C0000432032DA5F10405F7DC01E004F8011B6445FBD3A0E700BF0EB448F2241330B59CB01FACC1F6FF73054601A954F8042B4FF0FF3C18684FF40273ADF81030234656
:40550000059501956FF00045ADF812C0069503951B9400F0B9F8019B00221A701CB0BDE8304003B0704700BF0CB40B4610B59CB01EAC01A905934FF4027C54F8042B01934D
:405540004FF0FF33ADF8123023461B946FF00044ADF810C00694039400F096F8019B00221A701CB0BDE8104002B070472DE9F04F85B092460C46039090681768002800F0AC
:4055800081804FF000090B684D46002D54D0A668B542B0463EBF18462E46A8463CD3A08910F4906F08BF184636D06269216902EB420B5B1A03F1010C0BEBDB7BAC444FEAB3
:4055C0006B0BE3455A463CBFE3465A4610F4806F37D011460398019302F0F8FB019B00283BD01A46216901930290FFF743FEA289019BDDF808C022F4906242F08002A281EB
:405600002E46A846C3EB0B020CEB0300A260C4F810C02060C4F814B04246494602F0E2FEA2682368961BA660DAF8082043442360551BCAF80850FDB1D7F800907D680837D1
:40564000A3E70398019303F0D9FB019B84460028D6D10398216902F08FFA039A0C234FF0FF3013600023A289CAF8043042F04002CAF80830A28102E02846CAF8045005B038
:40568000BDE8F08F5060FAE72DE9F04FC5B00E469A461546099002F055FBB38913F0800F00681B9003D03369002B01F08C800DF17409B3464C460022109200231892179249
:4056C0001A920D922DAA199328320DF1F703169207930023CDF8DC90389339932B78B3F1250218BF0122002B0CBF002202F0010202B32E4616F8013F1A1E18BF0122252BEF
:405700000CBF002202F00102002AF3D1771B08BF35460FD06760389B399A01332560D219072B3992389379DC08340D983546C0190D903378002B00F0378700214FF0000200
:40574000CDF828A06B1C0C914FF0FF388DF80F218A466A782B204FF0200C5D1CA2F12003582B00F21982DFE813F029021702170235021702170217021702170217023C0274
:4057800048021702C802CF021702EF02F602F602F602F602F602F602F602F602F60217021702170217021702170217021702170217024F0288021702880217021702170266
:4057C0001702C10217021702EE0317021702170217021702930317021702AD031702170217021702170217021702170217021702C703D8038802880288020B03D803170276
:4058000017020F031702190329033E038C03170259031702840317021702EA000998594637AAFFF7A3FE00287CD14C467DE71899012940F35284119A01236360389B2260ED
:40584000399A013338930132072B399200F39685083401236360389B399A01331B980132072B39922060389300F37D8508341098002200231999FFF7CBFC002840F0038580
:405880001899119B4A1E6260591C389B21603999013338938A18072B399200F32F8408341A9A1A9862603EAA389B2260399A013338931218072B399200F34F8104F1080325
:4058C0001AF0040F00F056810C990B9A8E1A002E40F35081102E4AF22077D8BFC0F2000740F3DE831024C0F200070DF1DC08DDF824A003E0103E102E40F3D2835C60389ABE
:40590000399901321F601031072A399103F108033892EFDD504659464246FFF727FE4B460028E7D05E46B3890D9813F0400F18BF4FF0FF300D900D9845B0BDE8F08F1AF049
:40594000200F4AF26470C0F200001492179000F0C3820A99CB1D23F0070303F108020A92D3E9006756EA07010CBF002201221AEA020F40F0BC8402234FF000018DF80F1168
:40598000B8F1000FA8BF2AF0800AB8F1000F18BF42F00102002A00F06081012B00F03484022B00F017841699CDF82C8011914FEAD6084FEAD70C48EA477806F00700674649
:4059C0004646303056EA070201F8010DEFD11AF0010FDDF82C80119140F0DB84169B5B1A0E930E9BCDF854804345B8BF43460B939DF80F3113B10B9901310B911AF0020297
:405A0000139202D00B9B02330B931AF08400129038D10C990B9A8E1A002E33DD102E4AF22077D8BFC0F2000720DD4FF01008C0F2000702E0103E102E18DDC4F80480389B29
:405A4000399A013327601032072B399204F108043893EFDD0998594637AA4C46FFF786FD00287FF45FAF103E102EE6DC6660389B27605A1C399B38929B19072A399300F3C6
:405A8000F78308349DF80F3173B101236360389B43AA03322260399A013338930132072B399200F340830834139B6BB102236360389B43AA2260399A013338930232072BB9
:405AC000399200F33A8308341298802800F0B28215980E9BC61A002E2EDD102EA74FC8BF4FF0100803DC1BE0103E102E18DDC4F80480389B399A013327601032072B3992BD
:405B000004F108043893EFDD0998594637AA4C46FFF72CFD00287FF405AF103E102EE6DC6660389B27605A1C399B38929B19072A399300F3EE8208341AF4807F40F0198202
:405B40000E99119A6160389B2260399A013338935218072B39927FF7B1AE0998594637AAFFF704FD00287FF4DDAE1AF0040F4B467FF4AAAE399B0D980B9A0C998A42ACBFFE
:405B8000801840180D90002B40F09E820023DDF828A038934C46A1E51492002A00F0048501208DF8B4204FF000012DAA0B908DF80F1111920E90002115911FE79DF80F313D
:405BC000002B40F00C840A992B468DF80FC12A780A91C2E50A994AF0010A2A782B460A91BBE50A9B0A9A1B68111D002B0C93C0F2B2852A782B460A91AFE50A992B468DF8AF
:405C00000F012A780A91A8E54AF0100A14921AF0200F00F087810A98C31D23F0070303F108010A91D3E90067002E77F10000C0F2768356EA07014FF001030CBF0022012229
:405C4000B8F1000FA8BF2AF0800AB8F1000F18BF42F00102002A7FF4A0AE002B40F0E5811AF0010F00F0E18130238DF8DB302DAB012027330E901193B3E61AF0080F1492AD
:405C800000F0BF830A98C31D23F0070303F108010A915E681F68199610973846314603F087FA0346002800F093843846002200233146FFF7B7FA002840F015849DF80F3150
:405CC00003204AF258724AF254710B901498C0F20001C0F200022AF0800A4728D8BF0A460321119200220E91159283E60A994AF0080A2A782B460A912FE50A992A784AF00A
:405D0000040A2B460A9128E52B4613F8012B2A2A00F0CF86A2F13001092988BF4FF0000810D802354FF0000815F8012C08EB88082B46013501EB4808A2F130010929F3D9AF
:405D400048EAE8781D4609E50A994AF0800A2A782B460A9101E5A2F1300100262B4606EB860613F8012B01EB4606A2F130011D460929F3D90C961D46F0E400BF30A700006A
:405D80004AF0400A0A9934E72A786C2A00F018840A994AF0100A2B460A91DEE41AF0200F00F023830A990D9A0B6810464FEAE0710A9AC3E9000102F1040A8FE41AF02003BA
:405DC000149200F0C7800A9BDA1D002322F0070202F108000A90D2E9006756EA07010CBF00220122C8E50A9A4AF264700A997823C0F200001493166804318DF80D314AF035
:405E0000020A3023321E18BF01228DF80C3136464FF00007179002230A91ADE50A9B14924FF00002181D8DF80F211B680A901193002B00F04D85B8F1000F1198C0F22A8556
:405E40000021424602F094FA0346002800F06E8511981B1A0E93434540F38284CDF83880002128EAE8789DF80F31CDF82C801591C0E51AF0200F149210D00A9BDA1D012345
:405E8000A4E70A994AF0200A2A782B460A9164E44AF0100A14921AF0200FEED11AF0100F40F054821AF0400F00F050820A980123011D0A910688321E18BF012236464FF00C
:405EC000000759E51AF0200F14924AF24072C0F2000217927FF43DAD1AF0100F40F02D821AF0400F00F029820A990A1D0A920E8836464FF0000735E5149201200A9A4FF058
:405F000000010B900E90136804328DF80F110A922DAA8DF8B43011924DE61AF0200F14927FF479AE1AF0100F40F0ED811AF0400F00F0E9810A98011D0A91B0F9006036464C
:405F40004FEAE67770E64AF0100A14921AF020037FF439AF1AF0100200F05F820A9A101D0A901668321E18BF012236464FF0000702E5149B652B7FF75AAC10980022002342
:405F80001999FFF745F9002800F0E18001236360389A4AF28073C0F200032360399B013238920133072A3993D8BF04F1080300F39F82429A1898824203DB1AF0010F3FF43A
:405FC0007FAC1B9901225A60389A19603999013238920131072A399100F3EB830833189A561E002E7FF76CAC102EA04F40F3E98110240DF1DC0803E0103E102E40F3E1813C
:406000005C60389A399901321F601031072A399103F108033892EFDD099859464246FFF7A5FA4B460028E7D07CE4169900220E921191D6E40C990B9A8E1A002E7FF748ADF8
:40604000102E8A4FC8BF4FF0100803DC1BE0103E102E18DDC4F80480389B399A013327601032072B399204F108043893EFDD0998594637AA4C46FFF779FA00287FF452ACA3
:40608000103E102EE6DC6660389B27605A1C399B38929B19072A399300F38881083417E55E60389A1F60399B01323892F318072A39937FF760AD0998594637AAFFF756FAA7
:4060C00000283FF457AD2DE40998594637AAFFF74DFA00283FF45AAD24E41AF0010F7FF4AAAB01236360389B399A013311990132072B3992216038937FF7D1AB099859466D
:4061000037AAFFF733FA00287FF40CAC4C46FFF7C7BB0998594637AAFFF728FA00287FF401AC4C4608E50998594637AAFFF71EFA00287FF4F7AB4C46B6E40998594637AA45
:40614000FFF714FA00287FF4EDAB4C46BCE4429B002B40F3D98118998B42C0F26F81119A6160389B2260399A013338935218072B3992D8BF04F1080300F3BA83429C1898B2
:40618000241A002C40F39B81102C384F40F38B81CDF838A01026AA460DF1DC08099D03E0103C102C40F37C815E60389A399901321F601031072A399103F108033892EFDD59
:4061C000284659464246FFF7D1F94B460028E7D0FFF7A8BB1698DDF85CC003461190310906F00F0241EA077138091CF802200E46074656EA070103F8012DF0D1169A119376
:40620000D21A0E92FFF7EDBB00230922B24273EB0700169B3EBFCDF82C80A0461C461AD2304639460A22002303F0BAFC30463946002302F1300C0A2204F801CD03F0B0FC71
:4062400006460F4609200021B042B941E8D323464446DDF82C805A1E3036119203F8016C169B9B1A0E93FFF7BCBB00BF30A700000998594637AAFFF779F900287FF452AB04
:406280004C46FFF7FFBB1898461E002E7FF708AB102E9C4FC8BF4FF0100803DC1BE0103E102E18DDC4F80480389B399A013327601032072B399204F108043893EFDD0998B6
:4062C000594637AA4C46FFF751F900287FF42AAB103E102EE6DC6660389B399A013327609219072B399238937FF7D9AA06E7149830214AF0020A012202238DF80C118DF85C
:406300000D01FFF739BB0A9A131D16680A9336464FEAE677002E77F10000BFF68AAC764267EB47072D2356EA07028DF80F310CBF002201220123FFF723BB0A9B181D1E68C5
:406340000A9036464FF00007FFF70CBB0A9A131D16680A930123321E18BF012236464FF00007FFF709BB0998594637AAFFF7FEF800287FF4D7AA4C46FFF779BA0998594607
:4063800037AAFFF7F3F800287FF4CCAA4C46FFF760BA302800F09682119A302302F8013D169B11929B1A0E93FFF71BBB0998594637AAFFF7DBF800287FF4B4AA4C46FFF7F1
:4063C00087BB5E60389A399901321F608919072A399138923FF7C1AB0833FFF771BA0A992B462A780A91FFF7B8B91AF0100F00F0CD810A980D9900F1040A03681960FFF7A2
:406400006DB90A9AD31D23F0070303F108000A905E681F68199610973FE41AF0400300F0A9810A9913460A1D0A920E88321E18BF012236464FF00007FFF79EBA119A6360A5
:4064400038992260399A01313891D3180729399300F3628208340123429E6360389B399A01331B980132072B3893D8BF04F108032060399200F34682429A119918988E1903
:406480001E60811A596039998A1A3899121839920131389107293FF760AB0833FFF710BA5546DDF838A05C60389A399901321F600919072A3991389200F37F8208331AF0ED
:4064C000010F3FF4FDA91B9901225A60389A19603999013238920131072A39913FF73DAB0833FFF7EDB92D238DF80F31FFF7E8BB0998594637AAFFF739F800287FF412AA99
:406500004B4656E530A7000001236360389A4AF28073C0F200032360399B013238920133072A3993D8BF04F1080300F37381429A2AB9189818B91AF0010F3FF4C1A91B996D
:4065400001225A60389A19603999013238920131072A399100F368810833429C6442002C40F38781102C9E4F40F3A08110260DF1DC0803E0103C102C40F398815E60389A19
:40658000399901321F601031072A399103F108033892EFDD099859464246FEF7E7FF4B460028E7D0FFF7BEB9399B5E46002B3FF4BAA90998594637AAFEF7D8FFFFF7B3B97E
:4065C0000A994AF0200A6A786B1C0A91FFF7C5B838463146089302F0FDFD089B002840F00181B8F1FF3F08BF08F107080ED0149A672A14BF00230123472A08BF43F00103C8
:4066000023B1B8F1000F08BF4FF0010833463A46CDE93A234AF4807A3B9B002BC0F20A82002315931499662914BF00230123462908BF43F001031293002B00F08A810323BD
:40664000CDF82C800B990E970F9600930998DDE90E23019142A9029141A9039140A9049100F0EAFA149AB2F1670318BF0123472A0CBF002303F0010311902BB91AF0010F05
:4066800008BFDDF800C11AD0119B0B98129903EB000C29B11B78302B00F0D080429B9C443846002200233146CDF820C0FEF7B0FDDDF820C0002800F07381CDF800C1149866
:4066C0001199672814BF00230123472808BF43F00103C1EB0C011891002B00F04A81429A12F1030F0E9202DB904580F24B81149B023B14930E9A1498531E4293002B8DF834
:40670000F800C0F2D1812B228DF8F920092B00F362813FA930338DF8FB3030238DF8FA303EAB189ACB1A18991A935918012A0E9140F3CC810E9801300E9020EAE0710B9166
:40674000159B002B00F0FD802D2300208DF80F311590FFF750B90C9B5B420C93FFF7CEBA0E9A00209DF80F3122EAE27215900B92FFF740B90A98011D0A910668321E18BF79
:40678000012236464FF00007FFF7F6B81AF0400F17BF0A9A0A990D9802F1040A11BF136801F1040A0B680D9A14BF18801A60FEF795BF0998594637AAFEF7D8FE00287FF41A
:4067C000B1A84B460BE40998402101F0FFFA30603061002800F08D8140237361FEF767BF30A7000003204AF260724AF25C710B901498C0F20001C0F2000215934728D8BFCE
:406800000A462AF0800A032111929DF80F310E91FFF7F0B80998594637AAFEF7A7FE00287FF480A84B4682E60998594637AAFEF79DFE00287FF476A84B468EE63846002205
:4068400000233146CDF820C0FEF7E2FCDDF820C000287FF423AF0B9AC2F1010342931EE70998594637AAFEF781FE00287FF45AA84B46189A11985A60389A39991860013287
:40688000189838920918072A39913FF766A90833FFF716B80021159102F0ACFD9DF80F3120EAE0720E900B92FFF7A4B85C60389A1F60511C399A3891121907293992CFDCF7
:4068C0000833D6E716991198081A0E90FFF789B8B8F1060F34BF414606214AF27872C0F2000221EAE1730E9111920B93FFF763B90998594637AAFEF739FE00287FF412A825
:406900004B463BE40998594637AAFEF72FFE00287FF408A84B46AFE50998594637AAFEF725FE00287EF4FEAF4C4694E5CDF8388028EAE8781590CDF82C809DF80F31FFF799
:4069400059B80E989DF80F3120EAE0700B90FFF751B8149A652A14BF00230123452A08BF43F00103002B32D008F101030B93022368E61498652862DD149A662A1CBF429B2A
:406980000E936FD0189A0E9B9A425BDC1AF0010F40F0818023EAE37067210B901491CFE6409B9C4598BF9C467FF689AE302203F8012B9C454093FAD881E60998594637AA39
:4069C000FEF7D4FD00287EF4ADAF4B4677E5CDF82C80023336E646F2676C0DF1F700C6F2666C8CFB0321DA17C2EBA10202EB8201A3EB410113463031092A00F8011DF0DCA7
:406A00003033421ED9B200F8011C079B934298BF0DF1FA017FF684AE02460DF1FB0301E012F8011B03F8011C1946079801339042F6D875E62D2006F100461590F2E5429914
:406A40000E9157E60E9918980029DABF0E9AC2F1020301231B18672123EAE3720E9314910B926DE6429800280E9038DDB8F1000F07D11AF0010F04BF20EAE0710B913FF4FE
:406A80005FAE0E9A66201490531C43440E9323EAE3710B9154E60E9A6723149301320E9222EAE2700B904BE62D225B428DF8F9202CE60A991A78D1F8008004310A91B8F1C0
:406AC000000FB8BF4FF0FF38FEF747BE1AF0010F04BF21EAE1730B933FF432AE2AE6B8F1000F0ED11AF0010F0BD101220B920E9226E609980C234FF0FF310D910360FEF775
:406B00001ABF08F10203662023EAE3710E9314900B9115E6000000002DE9F84F03690E69824689469E4200F38380F21C01F1140500F11404013E92008B18121803F104084E
:406B400059685068013102F0B3FC0746002839D000239C461A46E958E0581FFA81FE4FEA114B81B20EFB07CE51180BFB07FC0CEB1E4C1FFA8EFECEEB01011FFA8CF24FEA2C
:406B80001C4CC2EB10421FFA81FE02EB21424EEA0241E1500433121459198845DBD2321D0AEB8203596869B99C4209D25AF8222012B105E01A681AB9043B013E9C42F9D373
:406BC000CAF810604946504601F0BEFC00282CDB002301379C46EA58E05891B2120C1FFA80F9C2EB1042C1EB0901614402EB214289B241EA0241E15004334FEA224C5A19E5
:406C00009045E8D2321D0AEB8203596869B99C4209D25AF8222012B105E01A681AB9043B013E9C42F9D3CAF810603846BDE8F88F0020BDE8F88F00BF2DE9F04F466AA1B06A
:406C40000446904699462D9D002E00F02384326882B1616A4FF0010C766820460B6856604A6819460CFA02F29A6001F0A7FD636A00221A60B9F1000638DB00232B6040F28F
:406C80000003C7F6F0731A4606EA0303934217D00022002340464946CDE90689FEF7B8FA002829D02C9801232E990360002900F0D080794B581E2E9A136021B0BDE8F08F53
:406CC0002C9842F20F730360B8F1000F00F095804AF29070C0F200002E990029EDD0C278C31C002AE7D000F10803E4E726F000460123B1462B60C2E72046DDE906231EA9D7
:406D000000911FA9019101F0ABFDC6F30A558346002D7ED0DDE90601A5F57E751F9F073D21F07F4323F4700343F07E51002341F4E001199340F200030022C3F6F873FEF763
:406D40005DF84FA3D3E9002302F0F0FC4EA3D3E90023FEF755F8CDE908012846FEF79CF94BA3D3E9002302F0E1FC02460B46DDE90801FEF745F8CDE9080102F0E9FE002256
:406D800000230646DDE90801FEF74CFA40B13046FEF782F9DDE90823FEF73AFA00B9013E162E5BD901231893013FB7EB050A42BFCAF1000ACDF83CA04FF0000A01D4002292
:406DC0000F92002EC0F27183B2440023179615932A9B092B62D8052B40F377862A98002704382A902A998B1E032B00F2DD83DFE813F0A503D803D503C40326F07F4626F471
:406E00007006002E7FF464AF4AF28470C0F2000062E71F9F1E9BFB1803F586639D1C202DDCBFC5F1200008FA00F008DD1E3BC5F1400216FA02F228FA03F342EA0300FEF7B3
:406E40001BF9A5F586650122033D1992A1F1F87170E74AF28070C0F200002EE74AF2E073DDE90601C0F2000303EBC603D3E90023FEF7D8F9002840F02083189094E700BFDC
:406E800061436F63A787D23FB3C8608B288AC63FFB799F501344D33F81A7000000234FF0FF301F4601212A931190169108902B93656A00236B602046696801F09BFC636A50
:406EC00028601B681093002F00F05B81002E40F32A844AF2E07306F00F02C0F20003351103EBC20315F0100FD3E90001CDE90C0100F0E7824AF6B803DDE90601C0F200031C
:406F000005F00F054FF00308D3E9082302F038FDCDE91201BDB14AF6B807DDE90C23C0F2000715F0010F1046194607D0D7E9002308F1010802F0FAFB02460B4608376D104A
:406F4000EFD1CDE90C23DDE90C23DDE9120102F017FDCDE90C011899002900F0DE8040F20003DDE90C010022C3F6F0734FF00005FEF758F908B14FF00105089A002AD4BF80
:406F8000002505F00105002D00F0C780119B002B40F3F58040F200030022C4F22403DDE90C0102F0C3FBCDE90C0108F10100711E1291FEF771F802460B46DDE90C0102F06C
:406FC000B5FB40F200030022C4F21C03FDF718FFDDF844C08046A1F15079169B002B00F0AD834AF2E07340F20001C0F20003002003EBCC03C3F6E071CDF80CC053E9022364
:4070000002F0BEFC42464B46109DFDF7F7FE80468946DDE90C0102F09BFD0746FEF73CF802460B46DDE90C01FDF7E8FE07F13003CDE90C01404605F8013B4946DDE90C2316
:40704000FEF70EF9002840F0138240F20001DDE90C230020C3F6F071FDF7D0FE02460B4640464946FEF7FCF8DDF80CC0002840F0E783BCF1010F40F38280CDF868B0012712
:40708000CDF870A01D966646DDE90CAB0C9410E040F200010020C3F6F071FDF7AFFE42464B46FEF7BFF8002840F0C783B74280F28B8440F20003404649460022C4F2240357
:4070C000013502F033FB40F200030022C4F22403804689465046594602F028FB8B46824602F036FD0446FDF7D7FF303402460B4650465946FDF782FE109A4B46D4554246C3
:40710000013782468B46FEF78DF852465B460028BED0DDF868B00C9CAAE14046FDF7BCFFDDE90C2302F002FB40F200030022C4F21C03FDF765FE089AA1F150758046A946AB
:40714000002A40F0EC8240F20003DDE90C010022C4F21403FDF752FE42462B46CDE90C01FEF77EF8002840F04A824246DDE90C0105F10043FEF756F8002840F0D581DDE976
:4071800006891E9B6FEA03074FEAD7770E2ECCBF002707F00107002F00F0B7802B984AF2E073C0F20003089903EBC603C20F0029CCBF002202F00102D3E90001CDE90401E7
:4071C000002A40F0A08102460B464046494602F0D7FB109D02F0BCFC8246FDF75DFFDDE9042302F0A3FA02460B4640464946FDF705FE0AF1300305F8013B089A012A804618
:40720000894652D040F200030022C4F2240302F08DFA00220023CDE90601FDF7F9FF002840F0EB8110984FF00108CDF82CB0A346871C0F96DDF82090DDE906450AE002F0CA
